:020000040800F2
:1000000000000524E5170008391600083F1600080F
:10001000451600084B1600085116000800000000A5
:10002000000000000000000000000000571600085B
:10003000651600080000000073160008811600080D
:10004000351800083518000835180008351800085C
:10005000351800083518000835180008351800084C
:10006000351800083518000835180008351800083C
:10007000351800083518000835180008351800082C
:10008000351800083518000835180008351800081C
:10009000351800083518000835180008351800080C
:1000A00035180008911600083518000835180008A2
:1000B000351800083518000835180008A51600087E
:1000C000351800083518000835180008B91600085A
:1000D000CD16000835180008351800083518000836
:1000E0003518000835180008000000003518000811
:1000F00035180008351800083518000835180008AC
:10010000351800083518000835180008351800089B
:10011000351800083518000835180008351800088B
:10012000351800083518000835180008351800087B
:10013000351800083518000835180008351800086B
:1001400000000000000000000000000000000000AF
:10015000351800083518000835180008351800084B
:10016000351800083518000835180008351800083B
:100170003518000835180008351800080000000080
:10018000351800083518000835180008351800081B
:10019000351800083518000835180008351800080B
:1001A0003518000835180008351800080000000050
:1001B00035180008351800083518000835180008EB
:1001C0003518000835180008000000000000000085
:1001D00000000000000000003518000800000000CA
:1001E000000000000000000000000000000000000F
:1001F0000000000000000000351800083518000855
:1002000035180008351800080000000035180008EF
:100210003518000835180008E116000835180008E0
:100220003518000800000000351800080000000024
:1002300035180008351800080000000035180008BF
:10024000351800083518000835180008351800085A
:10025000351800083518000835180008351800084A
:10026000351800083518000835180008351800083A
:10027000351800083518000835180008000000007F
:10028000351800083518000835180008351800081A
:1002900000000000351800083518000800000000B4
:1002A000000000003518000835180008351800084F
:1002B00035180008351800083518000835180008EA
:0C02C00035180008351800083518000833
:1002CC0010B5054C237833B9044B13B10448AFF384
:1002DC0000800123237010BD1000002400000000DA
:1002EC001C6D000808B5034B1BB103490348AFF361
:1002FC00008008BD00000000140000241C6D0008E4
:10030C0080B5A8B000AF00F029FE434B5B6903F445
:10031C000033002B1BD1BFF34F8F00BFBFF36F8F88
:10032C0000BF3D4B0022C3F85022BFF34F8F00BFDC
:10033C00BFF36F8F00BF384B5B69374A43F4003310
:10034C005361BFF34F8F00BFBFF36F8F00E000BF4F
:10035C00314B5B6903F48033002B43D12E4B0022CD
:10036C00C3F88420BFF34F8F00BF2B4BD3F88030E2
:10037C00C7F89030D7F890305B0BC3F30E03C7F877
:10038C008C30D7F89030DB08C3F30903C7F88830FA
:10039C00D7F88C305A0143F6E0731340D7F8882015
:1003AC0092071D491343C1F86032D7F888305A1EA2
:1003BC00C7F88820002BEBD1D7F88C305A1EC7F821
:1003CC008C20002BDDD1BFF34F8F00BF124B5B692C
:1003DC00114A43F480335361BFF34F8F00BFBFF317
:1003EC006F8F00E000BF06F0E7FB00F0E1F900F0D2
:1003FC0099FC00F0B5FB00F02DFC00F037FB00F091
:10040C0087FA00F045FA00F0D9FA0023C7F89830C3
:10041C000023C7F89C30E5E000ED00E001224FF42A
:10042C008061DC4801F064FF01224FF48061DA48FE
:10043C0001F05EFFC82006F01BFC01220121D74809
:10044C0001F056FFC82006F013FC00222021D348EF
:10045C0001F04EFF4FF47A7006F00AFC4021CF48B1
:10046C0001F02EFF034687F89530C82006F000FCFB
:10047C00082387F844300023A7F8403000224FF4BB
:10048C000071C74801F034FF07F144014FF47A734F
:10049C000122C44804F09AFC034687F894300122E8
:1004AC004FF40071BE4801F023FF322006F0E0FB50
:1004BC0045F22013BB8700224FF40071B84801F0BD
:1004CC0017FF07F13C014FF47A730222B54804F090
:1004DC007DFC034687F8943001224FF40071B0483C
:1004EC0001F006FF322006F0C3FB102387F83830EA
:1004FC0000224FF40071AA4801F0FAFE07F138010E
:10050C004FF47A730122A74804F060FC034687F885
:10051C00943001224FF40071A14801F0E9FE322021
:10052C0006F0A6FB4CF207033B860023BB8500229A
:10053C004FF400719A4801F0DBFE07F130014FF4E3
:10054C007A730222974804F041FC034687F89430F2
:10055C0001224FF40071924801F0CAFE322006F0DD
:10056C0087FB082387F828300023BB8400224FF434
:10057C0000718B4801F0BCFE07F128014FF47A732F
:10058C000122884804F022FC034687F894300122AB
:10059C004FF40071824801F0ABFE322006F068FB8C
:1005AC004FF428633B8400224FF400717C4801F027
:1005BC009FFE07F120014FF47A730222794804F070
:1005CC0005FC034687F8943001224FF400717448FF
:1005DC0001F08EFE322006F04BFBD7F89C30013335
:1005EC00C7F89C30D7F89C30002B7FF717AF082347
:1005FC0087F868300023A7F8643000224FF40071AC
:10060C00674801F075FE07F168014FF47A73012217
:10061C00644804F0DBFB034687F8973001224FF463
:10062C0000715F4801F064FE4FF4FA7006F020FB95
:10063C004FF42063A7F8603000224FF40071584843
:10064C0001F056FE07F160014FF47A73022255480F
:10065C0004F0BCFB034687F8973001224FF400717D
:10066C004F4801F045FE4FF4FA7006F001FB582399
:10067C0087F85C3000224FF40071494801F038FED5
:10068C0007F15C014FF47A730122464804F09EFB9B
:10069C00034687F8973001224FF40071404801F06F
:1006AC0027FE4FF4FA7006F0E3FA3F4A07F15803BD
:1006BC001268114619800233120C1A703B4A07F16A
:1006CC0054031268114619800233120C1A7000225E
:1006DC004FF40071324801F00BFE07F154014FF456
:1006EC007A7302222F4804F06DFD034687F8973089
:1006FC0001224FF400712A4801F0FAFD97F85620B8
:10070C0097F855301344DAB297F85430134487F8FD
:10071C0096304FF4FA7006F0ABFA402387F850305D
:10072C0000224FF400711E4801F0E2FD07F1500168
:10073C004FF47A7301221B4804F048FB034687F8F8
:10074C00973001224FF40071154801F0D1FD4FF4A0
:10075C00FA7006F08DFA002387F84C3000224FF423
:10076C0000710F4801F0C4FD07F148014FF47A7392
:10077C0001220C4804F026FD034687F8973001222D
:10078C004FF40071064801F0B3FD4FF4FA7006F017
:10079C006FFA3DE60018025800000258000C02588F
:1007AC000004025808010024706D0008446D000814
:1007BC0080B59CB000AF07F124034C2200211846F1
:1007CC0006F09EFA3B1D20220021184606F098FAEE
:1007DC00042001F0E7FE00233B602C4B9B6923F4C3
:1007EC0040432A4A43F400439361284B9B6903F42A
:1007FC0040433B603B6800BF244B9B6903F40053B0
:10080C00B3F5005FF8D102237B6201233B634023E5
:10081C007B630223BB640023FB6404233B650C2332
:10082C007B650123BB650223FB6502233B660C231E
:10083C007B660023BB660023FB6607F12403184686
:10084C0003F00EFA0346002B01D000F0D1FB3F233E
:10085C007B600323BB600023FB6008233B614023C8
:10086C007B614023BB614FF48063FB6140233B629F
:10087C003B1D0121184603F0CDFD0346002B01D092
:10088C0000F0B6FB00BF7037BD4680BD0048025873
:10089C0080B500AF1B4B1C4A1A601A4B1B4A5A609E
:1008AC00184B00229A60174B0122DA60154B00227C
:1008BC001A61144B00225A61124B00229A61114B9F
:1008CC000022DA610F4B00221A620E4801F0C0FDC3
:1008DC000346002B01D000F08BFB0021094801F0EE
:1008EC0020FD0346002B01D000F082FB00210548BF
:1008FC0001F062FD0346002B01D000F079FB00BF34
:10090C0080BD00BF2C000024005400405D3E302010
:10091C0080B500AF274B284A1A60264B4FF4800253
:10092C005A60244B00229A60224B0722DA60214B3A
:10093C004FF000721A611F4B00225A611D4B4FF091
:10094C0080629A611B4B4FF0A042DA61194B002276
:10095C001A62184B00225A62164B00229A62154BEF
:10096C000022DA62134B00225A63124B00229A6364
:10097C00104B0022DA630F4B00221A640D4B00223D
:10098C005A640C4B00229A640A4B0022DA64094B1D
:10099C0000221A65074B00225A65064B00229A6505
:1009AC00044804F0EFF80346002B01D000F020FBC4
:1009BC0000BF80BD800000240030014080B500AF36
:1009CC00284B294A1A60274B4FF480025A60254B5A
:1009DC0000229A60234B0722DA60224B4FF0007200
:1009EC001A61204B4FF080725A611E4B4FF080629F
:1009FC009A611C4B4FF0C042DA611A4B00221A620A
:100A0C00184B00225A62174B00229A62154B0A228D
:100A1C00DA62144B00225A63124B00229A63114B78
:100A2C000022DA630F4B00221A640E4B00225A6428
:100A3C000C4B00229A640B4B0022DA64094B002207
:100A4C001A65084B00225A65064B00229A65054828
:100A5C0004F098F80346002B01D000F0C9FA00BF4F
:100A6C0080BD00BF080100240038004080B594B060
:100A7C0000AF07F1340300221A605A609A60DA6002
:100A8C001A615A619A613B4634220021184606F0DD
:100A9C0037F9314B314A1A602F4B00225A602E4BDA
:100AAC0000229A602C4B4FF6FF72DA602A4B002220
:100ABC001A61294B00225A61274B80229A612648E1
:100ACC0005F06EF90346002B01D000F091FA224894
:100ADC0005F044FA0346002B01D000F089FA60239C
:100AEC007B630023BB630023FB6300233B64002375
:100AFC007B640023BB640023FB6407F134030022F6
:100B0C001946154805F0A0FB0346002B01D000F058
:100B1C006FFA00233B6000237B600023BB60002343
:100B2C00FB6000233B614FF400537B610023BB61EE
:100B3C0000233B633B461946074805F073F8034610
:100B4C00002B01D000F054FA034800F083FC00BFE6
:100B5C005037BD4680BD00BF9001002400440140C9
:100B6C0080B594B000AF07F1340300221A605A60CC
:100B7C009A60DA601A615A619A613B46342200210C
:100B8C00184606F0BDF8314B314A1A602F4B002243
:100B9C005A602E4B00229A602C4B4FF6FF72DA6093
:100BAC002A4B00221A61294B00225A61274B8022C2
:100BBC009A61264805F0F4F80346002B01D000F0AA
:100BCC0017FA224805F0CAF90346002B01D000F0B1
:100BDC000FFA60237B630023BB630023FB630023BA
:100BEC003B6400237B640023BB640023FB6407F19C
:100BFC00340300221946154805F026FB0346002B4A
:100C0C0001D000F0F5F900233B6000237B6000234A
:100C1C00BB600023FB6000233B614FF400537B61FE
:100C2C000023BB6100233B633B461946074804F095
:100C3C00F9FF0346002B01D000F0DAF9034800F06D
:100C4C0009FC00BF5037BD4680BD00BFDC0100244D
:100C5C000048014080B58AB000AF07F11C030022A8
:100C6C001A605A609A603B4600221A605A609A6079
:100C7C00DA601A615A619A61284B294A1A60274B2B
:100C8C0000225A60254B00229A60244B4FF0FF3211
:100C9C00DA60224B4FF400721A61204B80229A6169
:100CAC001E4805F05BF90346002B01D000F0A0F9BB
:100CBC000023FB6100237B6207F11C0319461748D4
:100CCC0004F014FF0346002B01D000F091F96023CF
:100CDC003B6000237B600023BB6000233B613B46F1
:100CEC00002219460D4805F0AFFA0346002B01D03F
:100CFC0000F07EF970233B603B46042219460748FE
:100D0C0005F0A2FA0346002B01D000F071F903485C
:100D1C0000F0A0FB00BF2837BD4680BD2802002490
:100D2C0000E4004080B58CB000AF07F11C0300223A
:100D3C001A605A609A60DA601A61814BD3F8E0301D
:100D4C007F4A43F00203C2F8E0307D4BD3F8E03029
:100D5C0003F00203BB61BB69794BD3F8E030784AEE
:100D6C0043F04003C2F8E030754BD3F8E03003F0A9
:100D7C0040037B617B69724BD3F8E030704A43F0DF
:100D8C000803C2F8E0306E4BD3F8E03003F00803F0
:100D9C003B613B696A4BD3F8E030694A43F001038D
:100DAC00C2F8E030664BD3F8E03003F00103FB608F
:100DBC00FB68634BD3F8E030614A43F00403C2F89C
:100DCC00E0305F4BD3F8E03003F00403BB60BB684A
:100DDC005B4BD3F8E0305A4A43F02003C2F8E030C2
:100DEC00574BD3F8E03003F020037B607B68544B07
:100DFC00D3F8E030524A43F01003C2F8E030504BC5
:100E0C00D3F8E03003F010033B603B6800224FF452
:100E1C0000714C4801F06CFA00224FF221014A4853
:100E2C0001F066FA00224FF4A061484801F060FA24
:100E3C0000224FF48061464801F05AFA0022C0218A
:100E4C00444801F055FA00224FF40141424801F0A8
:100E5C004FFA4FF40073FB6101233B6200237B626A
:100E6C000023BB6207F11C031946364801F080F8D9
:100E7C004FF22103FB6101233B6200237B620023C1
:100E8C00BB6207F11C0319462F4801F071F84FF4AF
:100E9C00A063FB6101233B6200237B620023BB62E6
:100EAC0007F11C031946294801F062F84FF48063DE
:100EBC00FB6101233B6200237B620023BB6207F1D1
:100ECC001C031946224801F053F84023FB61002310
:100EDC003B6200237B6207F11C0319461A4801F0A0
:100EEC0047F8C023FB6101233B6200237B62002394
:100EFC00BB6207F11C031946164801F039F84FF490
:100F0C00D443FB6100233B6200237B6207F11C038B
:100F1C001946114801F02CF84FF40143FB610123F1
:100F2C003B6200237B620023BB6207F11C03194662
:100F3C00094801F01DF800BF3037BD4680BD00BF29
:100F4C000044025800040258000C025800000258D9
:100F5C0000180258000802580010025880B584B0DE
:100F6C0000AF3B4600221A605A609A60DA6000F0CB
:100F7C003DFD01233B7000237B7000237B601F230E
:100F8C003B7287237B720023BB720023FB7201230D
:100F9C003B7301237B730023BB730023FB733B4622
:100FAC00184600F05BFD042000F038FD00BF103740
:100FBC00BD4680BD80B582B000AF78607B681B6891
:100FCC00084A934201D105F033FE7B68064A9342EE
:100FDC0004D1064B1B680133044A136000BF083769
:100FEC00BD4680BD00000140DC01002474020024D9
:100FFC0080B400AF72B600BFFEE7000080B483B0CF
:10100C0000AF0A4BD3F8F430084A43F00203C2F89D
:10101C00F430064BD3F8F43003F002037B607B68AA
:10102C0000BF0C37BD465DF8047B70470044025886
:10103C0080B5B8B000AF786007F1CC0300221A601D
:10104C005A609A60DA601A6107F11003B822002125
:10105C00184605F055FE7B681B682B4A93424ED10F
:10106C004FF008024FF00003C7E904230023C7F830
:10107C00903007F11003184601F0EEFA0346002BEE
:10108C0001D0FFF7B5FF214BD3F8E0301F4A43F0F6
:10109C000203C2F8E0301D4BD3F8E03003F002033A
:1010AC00FB60FB684FF4C073C7F8CC301223C7F851
:1010BC00D0300123C7F8D4300023C7F8D83004232C
:1010CC00C7F8DC3007F1CC031946114800F050FF8B
:1010DC000E4BD3F8E8300D4A43F40013C2F8E83055
:1010EC000A4BD3F8E83003F40013BB60BB68002252
:1010FC0000211F2000F052FC1F2000F069FC00BFF3
:10110C00E037BD4680BD00BF00540040004402588B
:10111C000004025880B5BEB000AF786007F1E4035C
:10112C0000221A605A609A60DA601A6107F128038B
:10113C00B8220021184605F0E3FD7B681B688C4A39
:10114C00934240F098804FF480524FF00003C7E96F
:10115C000A230023C7F8843007F12803184601F04E
:10116C007BFA0346002B01D0FFF742FF814BD3F8EB
:10117C00F030804A43F48053C2F8F0307D4BD3F802
:10118C00F03003F480537B627B6A7A4BD3F8E03007
:10119C00784A43F04003C2F8E030764BD3F8E030A5
:1011AC0003F040033B623B6A724BD3F8E030714A68
:1011BC0043F00803C2F8E0306E4BD3F8E03003F094
:1011CC000803FB61FB696B4BD3F8E030694A43F0D1
:1011DC000103C2F8E030674BD3F8E03003F00103B1
:1011EC00BB61BB694FF40073C7F8E4300223C7F846
:1011FC00E8300023C7F8EC300323C7F8F0300523A0
:10120C00C7F8F43007F1E40319465B4800F0B0FE70
:10121C008023C7F8E4300223C7F8E8300023C7F86E
:10122C00EC300323C7F8F0300523C7F8F43007F18E
:10123C00E4031946514800F09BFE2023C7F8E43024
:10124C000223C7F8E8300023C7F8EC300323C7F8B3
:10125C00F0300523C7F8F43007F1E4031946484889
:10126C0000F086FE00220021232000F097FB2320B3
:10127C0000F0AEFB77E07B681B68424A934272D168
:10128C004FF480524FF00003C7E90A230023C7F83C
:10129C00843007F12803184601F0DEF90346002BD1
:1012AC0001D0FFF7A5FE334BD3F8E830314A43F4B5
:1012BC008043C2F8E8302F4BD3F8E83003F4804376
:1012CC007B617B692B4BD3F8E0302A4A43F0040353
:1012DC00C2F8E030274BD3F8E03003F004033B6155
:1012EC003B69244BD3F8E030224A43F00203C2F8A6
:1012FC00E030204BD3F8E03003F00203FB60FB68D6
:10130C000C23C7F8E4300223C7F8E8300023C7F8F1
:10131C00EC300023C7F8F0300523C7F8F43007F1A0
:10132C00E4031946184800F023FE4FF48063C7F815
:10133C00E4300223C7F8E8300023C7F8EC30002370
:10134C00C7F8F0300523C7F8F43007F1E403194669
:10135C000E4800F00DFE00220021242000F01EFBA0
:10136C00242000F035FB00BFF837BD4680BD00BF20
:10137C00003001400044025800180258000C02587A
:10138C0000000258003800400008025800040258BF
:10139C0080B584B000AF78607B681B68194A9342B3
:1013AC000FD1194BD3F8F030174A43F40033C2F87D
:1013BC00F030154BD3F8F03003F40033FB60FB68CE
:1013CC001BE07B681B68114A934216D10E4BD3F875
:1013DC00F0300D4A43F48023C2F8F0300A4BD3F8B6
:1013EC00F03003F48023BB60BB6800220021762020
:1013FC0000F0D4FA762000F0EBFA00BF1037BD46AF
:10140C0080BD00BF00440140004402580048014028
:10141C0080B485B000AF78607B681B680B4A934240
:10142C000ED10B4BD3F8EC30094A43F00073C2F8E1
:10143C00EC30074BD3F8EC3003F00073FB60FB6827
:10144C0000BF1437BD465DF8047B704700E40040D4
:10145C000044025880B58AB000AF786007F11403DD
:10146C0000221A605A609A60DA601A617B681B6805
:10147C00384A93421FD1384BD3F8E030364A43F008
:10148C002003C2F8E030344BD3F8E03003F02003F3
:10149C003B613B6940237B610223BB610023FB6101
:1014AC0000233B6201237B6207F1140319462B488E
:1014BC0000F05EFD49E07B681B68294A93421FD10E
:1014CC00254BD3F8E030244A43F02003C2F8E03037
:1014DC00214BD3F8E03003F02003FB60FB68802342
:1014EC007B610223BB610023FB6100233B62012370
:1014FC007B6207F114031946184800F039FD24E00B
:10150C007B681B68174A93421FD1134BD3F8E0300A
:10151C00114A43F02003C2F8E0300F4BD3F8E0300F
:10152C0003F02003BB60BB684FF4C0537B61022304
:10153C00BB610023FB6100233B620E237B6207F13E
:10154C0014031946054800F013FD00BF2837BD46AB
:10155C0080BD00BF004401400044025800140258F2
:10156C000048014000E4004080B58EB000AF7860C8
:10157C007B680F2B44D800227968192000F00EFAF2
:10158C00192000F025FA244A7B681360234BD3F80A
:10159C00F030224A43F00103C2F8F0301F4BD3F86D
:1015AC00F03003F00103BB60BB6807F10C0207F1DC
:1015BC0010031146184603F0A3FA03F08BFA034606
:1015CC005B007B637B6B164AA2FB03239B0C013BEA
:1015DC003B63144B144A1A60124B40F2E732DA6048
:1015EC00104A3B6B53600F4B00221A610D4B0022CB
:1015FC009A600C4804F0D4FB0346002B07D101E0A1
:10160C00012305E0074804F023FC034600E0012316
:10161C0018463837BD4680BD0800002400440258E7
:10162C0083DE1B43780200240000014080B400AF2D
:10163C00FEE780B400AFFEE780B400AFFEE780B4F5
:10164C0000AFFEE780B400AFFEE780B400AF00BF90
:10165C00BD465DF8047B704780B400AF00BFBD464B
:10166C005DF8047B704780B400AF00BFBD465DF8E9
:10167C00047B704780B400AF00BFBD465DF8047BAF
:10168C007047000080B500AF024804F0BEFC00BFFC
:10169C0080BD00BF7802002480B500AF024800F086
:1016AC0067FF00BF80BD00BF2C00002480B500AFD9
:1016BC00024803F017FF00BF80BD00BF800000246C
:1016CC0080B500AF024803F00DFF00BF80BD00BF26
:1016DC000801002480B500AF024804F096FC00BF5E
:1016EC0080BD00BFDC01002480B400AF324BD3F8C6
:1016FC008830314A43F47003C2F888302F4B1B6892
:10170C0003F00F03062B07D82C4B1B6823F00F0399
:10171C002A4A43F007031360294B1B68284A43F0FD
:10172C0001031360264B00221A61254B1A682449C9
:10173C00244B13400B60214B1B6803F00803002B58
:10174C0007D01E4B1B6823F00F031C4A43F0070302
:10175C0013601B4B00229A61194B0022DA61184B63
:10176C0000221A62164B184A9A62154B174ADA6213
:10177C00134B174A1A63124B00225A63104B144A2C
:10178C009A630F4B0022DA630D4B114A1A640C4B0F
:10179C0000225A640A4B1B68094A23F48023136005
:1017AC00074B00221A660B4B43F2D2021A6000BFA1
:1017BC00BD465DF8047B704700ED00E00020005250
:1017CC00004402587FEDF6EA000202020000FF011D
:1017DC008002010100400052DFF834D0FFF784FF93
:1017EC000C480D490D4A002302E0D458C450043370
:1017FC00C4188C42F9D30A4A0A4C002301E0136046
:10180C000432A242FBD305F057FAFEF779FD70477C
:10181C000000052400000024100000248C6D00083A
:10182C0010000024C8020024FEE7000080B485B03C
:10183C0000AF78607B6803F00703FB600B4BDB6841
:10184C00BB60BA684FF6FF031340BB60FB681A021B
:10185C00BB681A43064B1343BB60044ABB68D36096
:10186C0000BF1437BD465DF8047B704700ED00E007
:10187C000000FA0580B400AF044BDB681B0A03F0D0
:10188C0007031846BD465DF8047B704700ED00E089
:10189C0080B483B000AF0346FB80B7F90630002B51
:1018AC000BDBFB8803F01F020749B7F906305B0915
:1018BC00012000FA02F241F8232000BF0C37BD468C
:1018CC005DF8047B704700BF00E100E080B483B09A
:1018DC0000AF03463960FB80B7F90630002B0ADBFA
:1018EC003B68DAB20C49B7F906301201D2B20B449C
:1018FC0083F800230AE03B68DAB20849FB8803F05E
:10190C000F03043B1201D2B20B441A7600BF0C3702
:10191C00BD465DF8047B704700E100E000ED00E09F
:10192C0080B489B000AFF860B9607A60FB6803F0EE
:10193C000703FB61FB69C3F10703042B28BF0423D6
:10194C00BB61FB690433062B02D9FB69033B00E046
:10195C0000237B614FF0FF32BB6902FA03F3DA43D9
:10196C00BB681A407B699A404FF0FF317B6901FAE2
:10197C0003F3D9437B680B40134318462437BD4609
:10198C005DF8047B704780B582B000AF78607868F2
:10199C00FFF74CFF00BF0837BD4680BD80B586B051
:1019AC0000AF0346B9607A60FB81FFF763FF786193
:1019BC007A68B9687869FFF7B3FF0246B7F90E3059
:1019CC0011461846FFF782FF00BF1837BD4680BD91
:1019DC0080B582B000AF0346FB80B7F906301846DD
:1019EC00FFF756FF00BF0837BD4680BD80B400AF7F
:1019FC00BFF35F8F00BF074B5B6A064A23F480334B
:101A0C005362054B00225A6000BFBD465DF8047B53
:101A1C00704700BF00ED00E090ED00E080B483B0B3
:101A2C0000AF78600B4A7B6843F0010353600A4BAC
:101A3C005B6A094A43F480335362BFF34F8F00BF94
:101A4C00BFF36F8F00BF00BF0C37BD465DF8047B42
:101A5C00704700BF90ED00E000ED00E080B483B073
:101A6C0000AF78607B685A781D4B9A607B681B7856
:101A7C00002B29D01A4A7B685B68D3607B681B7B80
:101A8C001A077B68DB7A1B061A437B689B7ADB049C
:101A9C001A437B685B7B9B041A437B689B7B5B04D0
:101AAC001A437B68DB7B1B041A437B685B7A1B0243
:101ABC001A437B681B7A5B0013437A6812781146D1
:101ACC00074A0B43136105E0054B0022DA60044B17
:101ADC0000221A6100BF0C37BD465DF8047B7047CD
:101AEC0090ED00E080B584B000AF78607B68002B8F
:101AFC0001D1012337E27B6893F83530DBB2022B3E
:101B0C0004D07B6880225A6501232CE27B681B6819
:101B1C005C4A93424AD07B681B685B4A934245D02F
:101B2C007B681B68594A934240D07B681B68584AB3
:101B3C0093423BD07B681B68564A934236D07B68F5
:101B4C001B68554A934231D07B681B68534A9342B9
:101B5C002CD07B681B68524A934227D07B681B6849
:101B6C00504A934222D07B681B684F4A93421DD047
:101B7C007B681B684D4A934218D07B681B684C4AA3
:101B8C00934213D07B681B684A4A93420ED07B6801
:101B9C001B68494A934209D07B681B68474A9342A9
:101BAC0004D07B681B68464A934201D1012300E0B4
:101BBC000023002B00F086807B68042283F83520FC
:101BCC007B681B682F4A93424AD07B681B682E4A5D
:101BDC00934245D07B681B682C4A934240D07B686B
:101BEC001B682B4A93423BD07B681B68294A934263
:101BFC0036D07B681B68284A934231D07B681B68BF
:101C0C00264A93422CD07B681B68254A934227D0E6
:101C1C007B681B68234A934222D07B681B68224A4C
:101C2C0093421DD07B681B68204A934218D07B6876
:101C3C001B681F4A934213D07B681B681D4A934252
:101C4C000ED07B681B681C4A934209D07B681B68CA
:101C5C001A4A934204D07B681B68194A934208D1F4
:101C6C007B681B681A687B681B6822F001021A608B
:101C7C0078E17B681B681A687B681B6822F001029C
:101C8C001A606FE110000240280002404000024040
:101C9C00580002407000024088000240A000024040
:101CAC00B8000240100402402804024040040240E4
:101CBC00580402407004024088040240A004024010
:101CCC00B80402407B681B681A687B681B6822F0AA
:101CDC000E021A607B681B686C4A93424AD07B6880
:101CEC001B686B4A934245D07B681B68694A9342D8
:101CFC0040D07B681B68684A93423BD07B681B686A
:101D0C00664A934236D07B681B68654A934231D051
:101D1C007B681B68634A93422CD07B681B68624AC1
:101D2C00934227D07B681B68604A934222D07B6821
:101D3C001B685F4A93421DD07B681B685D4A9342C7
:101D4C0018D07B681B685C4A934213D07B681B6875
:101D5C005A4A93420ED07B681B68594A934209D069
:101D6C007B681B68574A934204D07B681B68564AB1
:101D7C00934208D17B681B681A687B681B6822F049
:101D8C0001021A6007E07B681B681A687B681B6895
:101D9C0022F001021A607B681B683C4A934272D0A5
:101DAC007B681B683A4A93426DD07B681B68394A42
:101DBC00934268D07B681B68374A934263D07B6838
:101DCC001B68364A93425ED07B681B68344A934248
:101DDC0059D07B681B68334A934254D07B681B688C
:101DEC00314A93424FD07B681B68304A93424AD0A9
:101DFC007B681B682E4A934245D07B681B682D4A32
:101E0C00934240D07B681B682B4A93423BD07B6843
:101E1C001B682A4A934236D07B681B68284A934237
:101E2C0031D07B681B68274A93422CD07B681B6897
:101E3C00254A934227D07B681B68244A934222D0C0
:101E4C007B681B68224A93421DD07B681B68214A21
:101E5C00934218D07B681B681F4A934213D07B684F
:101E6C001B681E4A93420ED07B681B681C4A934227
:101E7C0009D07B681B681B4A934204D07B681B68A3
:101E8C00194A934232D1012331E000BF10000240C5
:101E9C0028000240400002405800024070000240FE
:101EAC0088000240A0000240B8000240100402402A
:101EBC0028040240400402405804024070040240CE
:101ECC0088040240A0040240B8040240085402589E
:101EDC001C54025830540258445402585854025856
:101EEC006C54025880540258945402580023002B0E
:101EFC0028D07B681B6E1A687B681B6E22F480727C
:101F0C001A607B689B6DFB607B68DB6D03F01F03C5
:101F1C0001229A40FB685A607B685B6E7A68926E0D
:101F2C005A607B68DB6E002B0CD07B68DB6E1A680A
:101F3C007B68DB6E22F480721A607B681B6F7A6898
:101F4C00526F5A607B68012283F835207B6800222F
:101F5C0083F834207B681B6D002B03D07B681B6DD2
:101F6C0078689847002318461037BD4680BD00BFDF
:101F7C0080B489B000AF786039600023FB61864B78
:101F8C007B618CE13B681A680121FB6901FA03F360
:101F9C0013403B613B69002B00F07E813B685B6822
:101FAC0003F00303012B05D03B685B6803F00303CC
:101FBC00022B30D17B689B68BB61FB695B00032201
:101FCC0002FA03F3DB43BA691340BB613B68DA687E
:101FDC00FB695B0002FA03F3BA691343BB617B68CC
:101FEC00BA699A607B685B68BB610122FB6902FA83
:101FFC0003F3DB43BA691340BB613B685B681B09A5
:10200C0003F00102FB6902FA03F3BA691343BB61E3
:10201C007B68BA695A603B685B6803F00303032B67
:10202C0017D07B68DB68BB61FB695B00032202FA9B
:10203C0003F3DB43BA691340BB613B689A68FB69E5
:10204C005B0002FA03F3BA691343BB617B68BA699C
:10205C00DA603B685B6803F00303022B23D1FB6956
:10206C00DA087B68083253F82230BB61FB6903F055
:10207C0007039B000F2202FA03F3DB43BA691340F8
:10208C00BB613B681A69FB6903F007039B0002FA0A
:10209C0003F3BA691343BB61FB69DA087B68083246
:1020AC00B96943F822107B681B68BB61FB695B0054
:1020BC00032202FA03F3DB43BA691340BB613B68AA
:1020CC005B6803F00302FB695B0002FA03F3BA6975
:1020DC001343BB617B68BA691A603B685B6803F4A5
:1020EC004033002B00F0D8802C4BD3F8F4302B4A23
:1020FC0043F00203C2F8F430284BD3F8F43003F069
:10210C000203FB60FB68264AFB699B08023352F80A
:10211C002330BB61FB6903F003039B000F2202FA1F
:10212C0003F3DB43BA691340BB617B681D4A9342DE
:10213C004AD07B681C4A93422BD07B681B4A934243
:10214C0025D07B681A4A93421FD07B68194A934268
:10215C0019D07B68184A934213D07B68174A934274
:10216C000DD07B68164A934207D07B68154A934280
:10217C0001D1092329E00A2327E0072325E00623C0
:10218C0023E0052321E004231FE003231DE00223A9
:10219C001BE0012319E000BF8000005800440258E6
:1021AC0000040058000002580004025800080258AD
:1021BC00000C025800100258001402580018025863
:1021CC00001C0258002402580023FA6902F0030292
:1021DC0092009340BA691343BB613849FB699B0871
:1021EC000233BA6941F823204FF0B0431B68BB613E
:1021FC003B69DB43BA691340BB613B685B6803F422
:10220C008013002B03D0BA693B691343BB614FF0B9
:10221C00B042BB6913604FF0B0435B68BB613B6974
:10222C00DB43BA691340BB613B685B6803F4001382
:10223C00002B03D0BA693B691343BB614FF0B0422A
:10224C00BB6953607B695B68BB613B69DB43BA6903
:10225C001340BB613B685B6803F40033002B03D075
:10226C00BA693B691343BB617B69BA695A607B6984
:10227C001B68BB613B69DB43BA691340BB613B68BC
:10228C005B6803F48033002B03D0BA693B691343BA
:10229C00BB617B69BA691A60FB690133FB613B68FE
:1022AC001A68FB6922FA03F3002B7FF46BAE00BFB4
:1022BC0000BF2437BD465DF8047B7047000400580E
:1022CC0080B485B000AF78600B467B807B681A6960
:1022DC007B881340002B02D00123FB7301E0002309
:1022EC00FB73FB7B18461437BD465DF8047B7047C7
:1022FC0080B483B000AF78600B467B8013467B7054
:10230C007B78002B03D07A887B689A6103E07B880A
:10231C001A047B689A6100BF0C37BD465DF8047BDC
:10232C00704780B483B000AF786039607B6893F8F5
:10233C004130DBB2202B38D17B6893F84030012B35
:10234C0001D1022332E07B68012283F840207B68B4
:10235C00242283F841207B681B681A687B681B6801
:10236C0022F001021A607B681B681A687B681B6884
:10237C0022F480521A607B681B6819687B681B68A2
:10238C003A680A431A607B681B681A687B681B688A
:10239C0042F001021A607B68202283F841207B689E
:1023AC00002283F84020002300E0022318460C375B
:1023BC00BD465DF8047B704780B485B000AF786093
:1023CC0039607B6893F84130DBB2202B39D17B68C4
:1023DC0093F84030012B01D1022333E07B680122BA
:1023EC0083F840207B68242283F841207B681B689B
:1023FC001A687B681B6822F001021A607B681B68F4
:10240C001B68FB60FB6823F47063FB603B681B027A
:10241C00FA681343FB607B681B68FA681A607B6878
:10242C001B681A687B681B6842F001021A607B68A3
:10243C00202283F841207B68002283F8402000236F
:10244C0000E0022318461437BD465DF8047B704744
:10245C0080B582B000AF78607B68002B01D101237E
:10246C007FE07B6893F84130DBB2002B06D17B68B0
:10247C00002283F840207868FEF7DAFD7B6824227E
:10248C0083F841207B681B681A687B681B6822F004
:10249C0001021A607B685A687B681B6822F07062C4
:1024AC001A617B681B689A687B681B6822F400427F
:1024BC009A607B68DB68012B07D17B689A687B6824
:1024CC001B6842F400429A6006E07B689A687B685D
:1024DC001B6842F404429A607B68DB68022B04D1CF
:1024EC007B681B684FF400625A607B681B685968F4
:1024FC007B681A681D4B0B4353607B681B68DA685A
:10250C007B681B6822F40042DA607B681A697B687E
:10251C005B6942EA03017B689B691A027B681B6852
:10252C000A43DA607B68D9697B681A6A7B681B6826
:10253C000A431A607B681B681A687B681B6842F048
:10254C0001021A607B6800225A647B68202283F89F
:10255C0041207B6800221A637B68002283F84220AA
:10256C00002318460837BD4680BD00BF008000021E
:10257C0080B584B000AF78607B681B689B69FB609A
:10258C007B681B681B68BB607B685B6B002B05D092
:10259C007B685B6BBA68F9687868984700BF10373E
:1025AC00BD4680BD80B584B000AF7860294BDB6838
:1025BC0003F00703062B0AD0264BDB6803F03F031E
:1025CC007A689A4201D001233FE000233DE0214B81
:1025DC00DB6823F03F021F497B681343CB6004F098
:1025EC003BFBF86009E004F037FB0246FB68D31AAA
:1025FC00B3F57A7F01D9012327E0164B5B6803F40E
:10260C000053B3F5005FEED17B681E2B08D07B68BE
:10261C002E2B05D07B681D2B02D07B682D2B13D164
:10262C0004F01AFBF86009E004F016FB0246FB68A4
:10263C00D31AB3F57A7F01D9012306E0054BDB6889
:10264C0003F01103112BEFD1002318461037BD46B0
:10265C0080BD00BF004802582DE9B04FC6B000AF96
:10266C00C7F80401002387F81731002387F81631C7
:10267C00D7F80431D3E9002302F00064002554EAB2
:10268C00050349D0D7F804315B6EB3F5401F2FD04A
:10269C00B3F5401F28D8B3F5001F1AD0B3F5001FAF
:1026AC0022D8002B03D0B3F5801F07D01CE0AB4B16
:1026BC00DB6AAA4A43F40033D3621AE0D7F8043138
:1026CC0008330221184601F067F9034687F81731E1
:1026DC000FE0D7F8043128330221184601F00EFA26
:1026EC00034687F8173104E0012387F8173100E01F
:1026FC0000BF97F81731002B0AD1984B1B6D23F4B0
:10270C004011D7F804315B6E944A0B43136503E018
:10271C0097F8173187F81631D7F80431D3E900232D
:10272C0002F480784FF0000958EA090347D0D7F833
:10273C0004319B6D042B2AD801A252F823F000BF60
:10274C00612700086F27000885270008A3270008C9
:10275C00A3270008814BDB6A804A43F40033D36221
:10276C001AE0D7F8043108330021184601F014F9A7
:10277C00034687F817310FE0D7F8043128330021CE
:10278C00184601F0BBF9034687F8173104E0012322
:10279C0087F8173100E000BF97F81731002B0AD1EA
:1027AC006E4B1B6D23F00701D7F804319B6D6B4A00
:1027BC000B43136503E097F8173187F81631D7F8F8
:1027CC000431D3E9002302F4806A4FF0000B5AEA7B
:1027DC000B035BD0D7F80431D3F8A430B3F5200F3A
:1027EC003BD0B3F5200F34D8B3F5000F37D0B3F589
:1027FC00000F2ED8B3F5C00F33D0B3F5C00F28D8C7
:10280C00B3F5800F1AD0B3F5800F22D8002B03D06C
:10281C00B3F5001F07D01CE0504BDB6A4F4A43F462
:10282C000033D3621EE0D7F8043108330021184678
:10283C0001F0B2F8034687F8173113E0D7F80431EA
:10284C0028330021184601F059F9034687F817314F
:10285C0008E0012387F8173104E000BF02E000BF55
:10286C0000E000BF97F81731002B0BD13B4B9B6D51
:10287C0023F46001D7F80431D3F8A430374A0B4362
:10288C00936503E097F8173187F81631D7F80431C0
:10289C00D3E9002302F40063C7F8F8300023C7F82B
:1028AC00FC30D7E93E120B4613435DD0D7F8043108
:1028BC00D3F8A830B3F1A06F3BD0B3F1A06F34D8EC
:1028CC00B3F1806F37D0B3F1806F2ED8B3F1407F66
:1028DC0033D0B3F1407F28D8B3F1007F1AD0B3F1D5
:1028EC00007F22D8002B03D0B3F1807F07D01CE0EF
:1028FC001A4BDB6A194A43F40033D3621EE0D7F853
:10290C00043108330021184601F046F8034687F8D5
:10291C00173113E0D7F8043128330021184601F0A1
:10292C00EDF8034687F8173108E0012387F81731D3
:10293C0004E000BF02E000BF00E000BF97F81731D1
:10294C00002B0DD1054B9B6D23F0E061D7F80431C2
:10295C00D3F8A830014A0B43936505E000440258B4
:10296C0097F8173187F81631D7F80431D3E90023DB
:10297C0002F00073C7F8F0300023C7F8F430D7E941
:10298C003C120B4613433AD0D7F80431DB6C302B96
:10299C001FD0302B19D8202B0CD0202B15D8002B66
:1029AC0019D0102B11D1AA4BDB6AA94A43F400337E
:1029BC00D36211E0D7F8043108330221184600F035
:1029CC00EBFF034687F8173106E0012387F8173130
:1029DC0002E000BF00E000BF97F81731002B0AD1CE
:1029EC009B4BDB6C23F03001D7F80431DB6C984A3D
:1029FC000B43D36403E097F8173187F81631D7F8F7
:102A0C000431D3E9002302F48053C7F8E8300023E3
:102A1C00C7F8EC30D7E93A120B46134351D0D7F82C
:102A2C000431DB6DB3F5804F35D0B3F5804F2ED824
:102A3C00B3F5405F31D0B3F5405F28D8B3F5005FF4
:102A4C001AD0B3F5005F22D8002B03D0B3F5805F0A
:102A5C0007D01CE07E4BDB6A7D4A43F40033D36223
:102A6C001CE0D7F8043108330021184600F094FF1D
:102A7C00034687F8173111E0D7F8043128330021C9
:102A8C00184601F03BF8034687F8173106E001239E
:102A9C0087F8173102E000BF00E000BF97F817314C
:102AAC00002B0AD16A4B1B6D23F4E041D7F804319B
:102ABC00DB6D674A0B43136503E097F8173187F812
:102ACC001631D7F80431D3E9002302F40053C7F8C8
:102ADC00E0300023C7F8E430D7E938120B46134333
:102AEC0053D0D7F804311B6EB3F5A02F33D0B3F508
:102AFC00A02F2CD8B3F5802F2FD0B3F5802F26D84C
:102B0C00B3F5403F2BD0B3F5403F20D8B3F5003F91
:102B1C0012D0B3F5003F1AD8002B22D0B3F5803F6A
:102B2C0015D1D7F8043108330121184600F034FFD1
:102B3C00034687F8173115E0D7F804312833012103
:102B4C00184600F0DBFF034687F817310AE0012333
:102B5C0087F8173106E000BF04E000BF02E000BFB9
:102B6C0000E000BF97F81731002B0AD1384B1B6DD2
:102B7C0023F4E021D7F804311B6E354A0B4313655F
:102B8C0003E097F8173187F81631D7F80431D3E9F9
:102B9C00002302F48043C7F8D8300023C7F8DC3098
:102BAC00D7E936120B46134358D0D7F80431D3F873
:102BBC00AC30B3F1A04F33D0B3F1A04F2CD8B3F15C
:102BCC00804F2FD0B3F1804F26D8B3F1405F2BD07C
:102BDC00B3F1405F20D8B3F1005F12D0B3F1005FC6
:102BEC001AD8002B22D0B3F1805F15D1D7F804315D
:102BFC0008330121184600F0CFFE034687F8173141
:102C0C0015E0D7F8043128330121184600F076FF7F
:102C1C00034687F817310AE0012387F8173106E0DD
:102C2C0000BF04E000BF02E000BF00E000BF97F867
:102C3C001731002B0ED1064B9B6D23F0E041D7F8DA
:102C4C000431D3F8AC30024A0B43936506E000BF65
:102C5C000044025897F8173187F81631D7F8043129
:102C6C00D3E9002302F40043C7F8D0300023C7F89F
:102C7C00D430D7E934120B46134337D0D7F804318C
:102C8C00DB6EB3F1005F0ED0B3F1005F16D8002BF2
:102C9C0018D0B3F1805F11D1C44BDB6AC34A43F443
:102CAC000033D3620FE0D7F8043108330121184602
:102CBC0000F072FE034687F8173104E0012387F811
:102CCC00173100E000BF97F81731002B0AD1B74B32
:102CDC001B6D23F04051D7F80431DB6EB34A0B4324
:102CEC00136503E097F8173187F81631D7F80431DC
:102CFC00D3E9002302F08073C7F8C8300023C7F86B
:102D0C00CC30D7E932120B46134339D0D7F8043103
:102D1C009B6C032B1CD801A252F823F0652D0008E4
:102D2C00392D0008472D0008652D00089F4BDB6AE4
:102D3C009E4A43F40033D3620FE0D7F804310833D2
:102D4C000221184600F028FE034687F8173104E0EC
:102D5C00012387F8173100E000BF97F81731002BDB
:102D6C000AD1924BDB6C23F00301D7F804319B6C36
:102D7C008E4A0B43D36403E097F8173187F816316A
:102D8C00D7F80431D3E9002302F48003C7F8C0302C
:102D9C000023C7F8C430D7E930120B46134300F0B8
:102DAC009980834B1B68824A43F48073136003F051
:102DBC0053FFC7F810010BE003F04EFF0246D7F8A3
:102DCC001031D31A642B03D9032387F8173105E08C
:102DDC00774B1B6803F48073002BEDD097F81731F9
:102DEC00002B73D1714B1A6FD7F80431D3F8B03074
:102DFC00534003F44073002B15D06C4B1B6F23F422
:102E0C004073C7F80C31694B1B6F684A43F480332D
:102E1C001367664B1B6F654A23F480331367634A51
:102E2C00D7F80C311367D7F80431D3F8B030B3F5B9
:102E3C00807F18D103F010FFC7F810010DE003F0EC
:102E4C000BFF0246D7F81031D21A41F288339A425E
:102E5C0003D9032387F8173105E0544B1B6F03F09C
:102E6C000203002BEBD097F81731002B29D1D7F8A0
:102E7C000431D3F8B03003F44073B3F5407F0ED176
:102E8C004A4B1B6923F47C51D7F80431D3F8B0308A
:102E9C001A09484B1340454A0B43136105E0434B59
:102EAC001B69424A23F47C531361404B196FD7F8CA
:102EBC000431D3F8B030C3F30B033C4A0B43136714
:102ECC0008E097F8173187F8163103E097F81731B7
:102EDC0087F81631D7F80431D3E9002302F0010347
:102EEC00C7F8B8300023C7F8BC30D7E92E120B4610
:102EFC00134300F08F80D7F804319B6F282B71D8C7
:102F0C0001A252F823F000BFF92F0008F12F00089E
:102F1C00F12F0008F12F0008F12F0008F12F000805
:102F2C00F12F0008F12F0008C52F0008F12F000821
:102F3C00F12F0008F12F0008F12F0008F12F0008E5
:102F4C00F12F0008F12F0008DB2F0008F12F0008EB
:102F5C00F12F0008F12F0008F12F0008F12F0008C5
:102F6C00F12F0008F12F0008F92F0008F12F0008AD
:102F7C00F12F0008F12F0008F12F0008F12F0008A5
:102F8C00F12F0008F12F0008F92F0008F12F00088D
:102F9C00F12F0008F12F0008F12F0008F12F000885
:102FAC00F12F0008F12F0008F92F000800440258F7
:102FBC0000480258CFFFFF00D7F804310833012135
:102FCC00184600F0E9FC034687F817310FE0D7F8F4
:102FDC00043128330121184600F090FD034687F890
:102FEC00173104E0012387F8173100E000BF97F890
:102FFC001731002B0AD1BF4B5B6D23F03801D7F88A
:10300C0004319B6FBB4A0B43536503E097F81731B0
:10301C0087F81631D7F80431D3E9002302F0020304
:10302C00C7F8B0300023C7F8B430D7E92C120B46E0
:10303C00134341D0D7F804315B6F052B24D801A280
:10304C0052F823F09D300008693000087F300008EA
:10305C009D3000089D3000089D300008D7F80431E1
:10306C0008330121184600F097FC034687F8173106
:10307C000FE0D7F8043128330121184600F03EFD4B
:10308C00034687F8173104E0012387F8173100E075
:10309C0000BF97F81731002B0AD1964B5B6D23F0CC
:1030AC000701D7F804315B6F924A0B43536503E079
:1030BC0097F8173187F81631D7F80431D3E9002384
:1030CC0002F00403C7F8A8300023C7F8AC30D7E9E6
:1030DC002A120B46134344D0D7F80431D3F890305E
:1030EC00052B25D801A252F823F000BF453100086A
:1030FC00113100082731000845310008453100081E
:10310C0045310008D7F8043108330121184600F086
:10311C0043FC034687F817310FE0D7F80431283306
:10312C000121184600F0EAFC034687F8173104E049
:10313C00012387F8173100E000BF97F81731002BF7
:10314C000BD16C4B9B6D23F00701D7F80431D3F8EE
:10315C009030684A0B43936503E097F8173187F872
:10316C001631D7F80431D3E9002302F02003C7F855
:10317C00A0300023C7F8A430D7E928120B4613431C
:10318C0055D0D7F80431D3F88C30B3F1A04F33D0ED
:10319C00B3F1A04F2CD8B3F1804F2FD0B3F1804FA7
:1031AC0026D8B3F1405F2BD0B3F1405F20D8B3F1F8
:1031BC00005F12D0B3F1005F1AD8002B22D0B3F10C
:1031CC00805F15D1D7F8043108330021184600F080
:1031DC00E3FB034687F8173115E0D7F804312833A1
:1031EC000221184600F08AFC034687F817310AE0E2
:1031FC00012387F8173106E000BF04E000BF02E0AE
:10320C0000BF00E000BF97F81731002B0BD1394BF2
:10321C005B6D23F0E041D7F80431D3F88C30354A9C
:10322C000B43536503E097F8173187F81631D7F83D
:10323C000431D3E9002302F04003C7F8983000238F
:10324C00C7F89C30D7E926120B46134358D0D7F851
:10325C000431D3F89830B3F5A05F33D0B3F5A05F49
:10326C002CD8B3F5805F2FD0B3F5805F26D8B3F59B
:10327C00406F2BD0B3F5406F20D8B3F5006F12D050
:10328C00B3F5006F1AD8002B22D0B3F5806F15D18F
:10329C00D7F8043108330021184600F07DFB0346B3
:1032AC0087F8173115E0D7F8043128330221184676
:1032BC0000F024FC034687F817310AE0012387F855
:1032CC00173106E000BF04E000BF02E000BF00E0E1
:1032DC0000BF97F81731002B0ED1064B9B6D23F4D2
:1032EC00E051D7F80431D3F89830024A0B43936578
:1032FC0006E000BF0044025897F8173187F81631E2
:10330C00D7F80431D3E9002302F08003C7F89030DA
:10331C000023C7F89430D7E924120B46134355D039
:10332C00D7F80431D3F89C30B3F5204F33D0B3F534
:10333C00204F2CD8B3F5004F2FD0B3F5004F26D823
:10334C00B3F5C04F2BD0B3F5C04F20D8B3F5804F99
:10335C0012D0B3F5804F1AD8002B22D0B3F5005FF2
:10336C0015D1D7F8043108330021184600F014FBAE
:10337C00034687F8173115E0D7F8043128330221BA
:10338C00184600F0BBFB034687F817310AE001230F
:10339C0087F8173106E000BF04E000BF02E000BF71
:1033AC0000E000BF97F81731002B0BD1A04B9B6DA1
:1033BC0023F46041D7F80431D3F89C309C4A0B437A
:1033CC00936503E097F8173187F81631D7F8043175
:1033DC00D3E9002302F00803C7F888300023C7F8AC
:1033EC008C30D7E922120B4613431ED0D7F8043188
:1033FC00D3F88030B3F5805F0CD1D7F80431283383
:10340C000221184600F07AFB0346002B02D0012360
:10341C0087F81631864B5B6D23F44051D7F8043195
:10342C00D3F88030824A0B435365D7F80431D3E983
:10343C00002302F01003C7F880300023C7F8843053
:10344C00D7E920120B4613431ED0D7F80431D3F81A
:10345C009430B3F5807F0CD1D7F804312833022196
:10346C00184600F04BFB0346002B02D0012387F8D3
:10347C0016316F4B9B6D23F44071D7F80431D3F8A0
:10348C0094306B4A0B439365D7F80431D3E900238E
:10349C0002F40023BB670023FB67D7E91E120B461F
:1034AC0013433ED0D7F80431D3F8A030B3F5003F26
:1034BC0022D0B3F5003F1BD8002B03D0B3F5803FCF
:1034CC000BD015E0D7F8043108330021184600F072
:1034DC0063FA034687F817310FE0D7F80431283325
:1034EC000221184600F00AFB034687F8173104E066
:1034FC00012387F8173100E000BF97F81731002B34
:10350C000BD14B4B9B6D23F44031D7F80431D3F8DE
:10351C00A030474A0B43936503E097F8173187F8BF
:10352C001631D7F80431D3E9002302F480233B672A
:10353C0000237B67D7E91C120B4613433BD0D7F80B
:10354C000431D3F88430B3F5401F1FD0B3F5401FBE
:10355C0018D8B3F5801F03D0B3F5001F07D011E0C6
:10356C00334BDB6A324A43F40033D3620FE0D7F8B3
:10357C00043128330121184600F0C0FA034687F8BD
:10358C00173104E0012387F8173100E000BF97F8EA
:10359C001731002B0BD1264B5B6D23F44011D7F860
:1035AC000431D3F88430224A0B43536503E097F877
:1035BC00173187F81631D7F80431D3E9002302F418
:1035CC008033BB660023FB66D7E91A120B46134304
:1035DC0034D0D7F804311B6D002B03D0B3F5803FEA
:1035EC0007D011E0124BDB6A114A43F40033D3626B
:1035FC000EE0D7F8043108330221184600F0CCF95C
:10360C00034687F8173103E0012387F8173100BF11
:10361C0097F81731002B0DD1054BDB6C23F480315F
:10362C00D7F804311B6D024A0B43D36406E000BF8C
:10363C000044025897F8173187F81631D7F804313F
:10364C00D3E9002302F000533B6600237B66D7E9E5
:10365C0018120B4613430CD0D7F80431283302212F
:10366C00184600F04BFA0346002B02D0012387F8D2
:10367C001631D7F80431D3E9002302F40033BB65CB
:10368C000023FB65D7E916120B46134336D0D7F847
:10369C000431DB6FB3F5407F18D0B3F5407F11D800
:1036AC00B3F5007F14D0B3F5007F0BD8002B11D0ED
:1036BC00B3F5807F06D1B74BDB6AB64A43F40033CF
:1036CC00D36208E0012387F8173104E000BF02E061
:1036DC0000BF00E000BF97F81731002B0AD1AD4BAB
:1036EC005B6D23F44071D7F80431DB6FA94A0B43AF
:1036FC00536503E097F8173187F81631D7F8043182
:10370C00D3E9002302F480133B6500237B65D7E9E2
:10371C0014120B46134309D09E4B1B6D23F0004132
:10372C00D7F804311B6F9B4A0B431365D7F8043150
:10373C00D3E9002302F40013BB640023FB64D7E934
:10374C0012120B46134309D0924B1B6D23F0807160
:10375C00D7F804319B6E8F4A0B431365D7F80431AD
:10376C00D3E9002302F080433B6400237B64D7E958
:10377C0010120B4613430ED0864B1B69854A23F45B
:10378C0000431361834B1969D7F80431D3F8B43073
:10379C00804A0B431361D7F80431D3E9002302F0BC
:1037AC000043BB630023FB63D7E90E120B461343A4
:1037BC0009D0784BDB6C23F04051D7F804315B6DAA
:1037CC00744A0B43D364D7F80431D3E9002302F4D1
:1037DC0000033B6300237B63D7E90C120B461343B6
:1037EC000AD06C4B5B6D23F44001D7F80431D3F84D
:1037FC008830684A0B435365D7F80431D3E900236A
:10380C000021B96203F00103FB62D7E90A120B46EF
:10381C00134311D0D7F8043108330021184600F0B7
:10382C00BBF8034687F8173197F81731002B03D0F4
:10383C0097F8173187F81631D7F80431D3E90023FC
:10384C000021396203F002037B62D7E908120B46B0
:10385C00134311D0D7F8043108330121184600F076
:10386C009BF8034687F8173197F81731002B03D0D4
:10387C0097F8173187F81631D7F80431D3E90023BC
:10388C000021B96103F00403FB61D7E906120B4672
:10389C00134311D0D7F8043108330221184600F035
:1038AC007BF8034687F8173197F81731002B03D0B4
:1038BC0097F8173187F81631D7F80431D3E900237C
:1038CC000021396103F008037B61D7E904120B4630
:1038DC00134311D0D7F8043128330021184600F0D7
:1038EC000DF9034687F8173197F81731002B03D0E1
:1038FC0097F8173187F81631D7F80431D3E900233C
:10390C000021B96003F01003FB60D7E902120B46EB
:10391C00134311D0D7F8043128330121184600F095
:10392C00EDF8034687F8173197F81731002B03D0C1
:10393C0097F8173187F81631D7F80431D3E90023FB
:10394C000021396003F020037B60D7E900120B469D
:10395C00134311D0D7F8043128330221184600F054
:10396C00CDF8034687F8173197F81731002B03D0A1
:10397C0097F8173187F8163197F81631002B01D1CB
:10398C00002300E00123184607F58C77BD46BDE8FF
:10399C00B08F00BF0044025880B584B000AF78608F
:1039AC0039600023FB73534B9B6A03F00303032B17
:1039BC0001D1012399E04F4B1B684E4A23F08063E1
:1039CC00136003F049F9B86008E003F045F90246CA
:1039DC00BB68D31A022B01D9032386E0454B1B6825
:1039EC0003F00063002BF0D1424B9B6A23F47C3232
:1039FC007B681B681B033F4913438B627B685B68C6
:103A0C00013BC3F308027B689B68013B5B029BB2E2
:103A1C001A437B68DB68013B1B0403F4FE031A4367
:103A2C007B681B69013B1B0603F0FE4331491343C2
:103A3C008B63304BDB6A23F0C0027B685B692D49DA
:103A4C001343CB622B4BDB6A23F020027B689B6910
:103A5C0028491343CB62274BDB6A264A23F0100319
:103A6C00D362244BDA6B244B13407A68D269D200B0
:103A7C0020491343CB631F4BDB6A1E4A43F01003F0
:103A8C00D3623B68002B06D11A4BDB6A194A43F40C
:103A9C000023D3620FE03B68012B06D1154BDB6A88
:103AAC00144A43F48013D36205E0124BDB6A114ACB
:103ABC0043F40013D3620F4B1B680E4A43F0806330
:103ACC00136003F0C9F8B86008E003F0C5F80246CB
:103ADC00BB68D31A022B01D9032306E0054B1B68E4
:103AEC0003F00063002BF0D0FB7B18461037BD466B
:103AFC0080BD00BF004402580700FFFF80B584B0B2
:103B0C0000AF786039600023FB73534B9B6A03F062
:103B1C000303032B01D1012399E04F4B1B684E4A41
:103B2C0023F08053136003F097F8B86008E003F0BB
:103B3C0093F80246BB68D31A022B01D9032386E003
:103B4C00454B1B6803F00053002BF0D1424B9B6A92
:103B5C0023F07C727B681B681B053F4913438B6207
:103B6C007B685B68013BC3F308027B689B68013B85
:103B7C005B029BB21A437B68DB68013B1B0403F4BA
:103B8C00FE031A437B681B69013B1B0603F0FE43D3
:103B9C00314913430B64304BDB6A23F440627B687E
:103BAC005B692D491343CB622B4BDB6A23F4007208
:103BBC007B689B6928491343CB62274BDB6A264AF7
:103BCC0023F48073D362244B5A6C244B13407A68D1
:103BDC00D269D200204913434B641F4BDB6A1E4A47
:103BEC0043F48073D3623B68002B06D11A4BDB6A1B
:103BFC00194A43F48003D3620FE03B68012B06D1D2
:103C0C00154BDB6A144A43F40003D36205E0124BF4
:103C1C00DB6A114A43F08073D3620F4B1B680E4A68
:103C2C0043F08053136003F017F8B86008E003F01A
:103C3C0013F80246BB68D31A022B01D9032306E002
:103C4C00054B1B6803F00053002BF0D0FB7B184690
:103C5C001037BD4680BD00BF004402580700FFFF6F
:103C6C0080B58CB000AF78607B68002B01D101234C
:103C7C00C8E37B681B6803F00103002B00F087800E
:103C8C00884B1B6903F03803FB62864B9B6ABB6253
:103C9C00FB6A102B07D0FB6A182B10D1BB6A03F000
:103CAC000303022B0BD17F4B1B6803F40033002B57
:103CBC006CD07B685B68002B68D10123A2E37B6826
:103CCC005B68B3F5803F06D1764B1B68754A43F4AD
:103CDC00803313602EE07B685B68002B0CD1714B3A
:103CEC001B68704A23F4803313606E4B1B686D4A5B
:103CFC0023F4802313601DE07B685B68B3F5A02F71
:103D0C000CD1684B1B68674A43F480231360654BE6
:103D1C001B68644A43F4803313600BE0614B1B68EF
:103D2C00604A23F4803313605E4B1B685D4A23F4B6
:103D3C00802313607B685B68002B13D002F08CFF30
:103D4C00786208E002F088FF02467B6AD31A642B83
:103D5C0001D9032356E3534B1B6803F40033002BA8
:103D6C00F0D014E002F078FF786208E002F074FF03
:103D7C0002467B6AD31A642B01D9032342E3494BD5
:103D8C001B6803F40033002BF0D100E000BF7B680C
:103D9C001B6803F00203002B00F08C80414B1B6965
:103DAC0003F038033B623F4B9B6AFB613B6A002B81
:103DBC0007D03B6A182B37D1FB6903F00303002BA8
:103DCC0032D1384B1B6803F00403002B05D07B6801
:103DDC00DB68002B01D1012314E3324B1B6823F069
:103DEC0019027B68DB682F4913430B6002F034FF28
:103DFC00786208E002F030FF02467B6AD31A022B8D
:103E0C0001D90323FEE2274B1B6803F00403002BAC
:103E1C00F0D0244B5B6823F0FE427B681B691B06C9
:103E2C00204913434B6045E07B68DB68002B26D0B0
:103E3C001C4B1B6823F019027B68DB681949134380
:103E4C000B6002F009FF786208E002F005FF024601
:103E5C007B6AD31A022B01D90323D3E2114B1B68C3
:103E6C0003F00403002BF0D00E4B5B6823F0FE42F2
:103E7C007B681B691B060B4913434B601AE0094B0B
:103E8C001B68084A23F00103136002F0E5FE786218
:103E9C000AE002F0E1FE02467B6AD31A022B03D938
:103EAC000323AFE200440258964B1B6803F0040353
:103EBC00002BEED17B681B6803F01003002B6AD03B
:103ECC00904B1B6903F03803BB618E4B9B6A7B6183
:103EDC00BB69082B07D0BB69182B1BD17B6903F07E
:103EEC000303012B16D1874B1B6803F48073002B43
:103EFC0005D07B68DB69802B01D0012382E2814BEA
:103F0C00DB6823F07C527B681B6A1B067D491343DC
:103F1C00CB6040E07B68DB69002B23D0794B1B68BE
:103F2C00784A43F08003136002F096FE786208E052
:103F3C0002F092FE02467B6AD31A022B01D90323AC
:103F4C0060E2704B1B6803F48073002BF0D06D4B58
:103F5C00DB6823F07C527B681B6A1B0669491343A0
:103F6C00CB6018E0674B1B68664A23F08003136034
:103F7C0002F072FE786208E002F06EFE02467B6A86
:103F8C00D31A022B01D903233CE25E4B1B6803F4CA
:103F9C008073002BF0D17B681B6803F00803002BA7
:103FAC0036D07B685B69002B19D0564B5B6F554A3A
:103FBC0043F00103536702F04FFE786208E002F011
:103FCC004BFE02467B6AD31A022B01D9032319E25A
:103FDC004C4B5B6F03F00203002BF0D018E0494B05
:103FEC005B6F484A23F00103536702F035FE786299
:103FFC0008E002F031FE02467B6AD31A022B01D98B
:10400C000323FFE13F4B5B6F03F00203002BF0D166
:10401C007B681B6803F02003002B36D07B689B6900
:10402C00002B19D0374B1B68364A43F4805313606E
:10403C0002F012FE786208E002F00EFE02467B6A85
:10404C00D31A022B01D90323DCE12E4B1B6803F49A
:10405C000053002BF0D018E02A4B1B68294A23F49C
:10406C008053136002F0F8FD786208E002F0F4FD72
:10407C0002467B6AD31A022B01D90323C2E1214BDE
:10408C001B6803F40053002BF0D17B681B6803F012
:10409C000403002B00F086801B4B1B681A4A43F468
:1040AC008073136002F0D8FD786208E002F0D4FD52
:1040BC0002467B6AD31A642B01D90323A2E1124B6B
:1040CC001B6803F48073002BF0D07B689B68012B7A
:1040DC0006D10C4B1B6F0B4A43F00103136732E004
:1040EC007B689B68002B11D1064B1B6F054A23F094
:1040FC0001031367034B1B6F024A23F0040313677E
:10410C0021E000BF00440258004802587B689B68BD
:10411C00052B0CD1834B1B6F824A43F004031367AE
:10412C00804B1B6F7F4A43F0010313670BE07D4B01
:10413C001B6F7C4A23F0010313677A4B1B6F794A80
:10414C0023F0040313677B689B68002B15D002F0E7
:10415C0083FD78620AE002F07FFD02467B6AD31A87
:10416C0041F28832934201D903234BE16D4B1B6F13
:10417C0003F00203002BEED014E002F06DFD786228
:10418C000AE002F069FD02467B6AD31A41F28832DA
:10419C00934201D9032335E1624B1B6F03F00203F9
:1041AC00002BEED17B685B6A002B00F02A815D4B03
:1041BC001B6903F03803182B00F0BA807B685B6A2C
:1041CC00022B40F09580574B1B68564A23F08073A6
:1041DC00136002F041FD786208E002F03DFD0246FA
:1041EC007B6AD31A022B01D903230BE14D4B1B68BD
:1041FC0003F00073002BF0D14A4B9A6A4A4B1340E0
:10420C007A68916A7A68D26A12010A434549134363
:10421C008B627B681B6B013BC3F308027B685B6B97
:10422C00013B5B029BB21A437B689B6B013B1B04FB
:10423C0003F4FE031A437B68DB6B013B1B0603F0A4
:10424C00FE43384913430B63364BDB6A354A23F084
:10425C000103D362334B5A6B344B13407A68926C24
:10426C00D200304913434B632E4BDB6A23F00C0214
:10427C007B681B6C2B491343CB622A4BDB6A23F004
:10428C0002027B685B6C27491343CB62254BDB6ACC
:10429C00244A43F48033D362224BDB6A214A43F431
:1042AC000033D3621F4BDB6A1E4A43F48023D36274
:1042BC001C4BDB6A1B4A43F00103D362194B1B688E
:1042CC00184A43F08073136002F0C6FC786208E071
:1042DC0002F0C2FC02467B6AD31A022B01D90323DB
:1042EC0090E0104B1B6803F00073002BF0D088E0BB
:1042FC000C4B1B680B4A23F08073136002F0ACFC70
:10430C00786208E002F0A8FC02467B6AD31A022B02
:10431C0001D9032376E0034B1B6803F00073002BD9
:10432C00F0D16EE0004402580CFCFFFF0700FFFFC9
:10433C00364B9B6A3B61354B1B6BFB607B685B6A46
:10434C00012B31D03B6903F003027B689B6A9A42D4
:10435C002AD13B691B0903F03F027B68DB6A9A4256
:10436C0022D1FB68C3F308027B681B6B013B9A42AA
:10437C001AD1FB685B0A03F07F027B685B6B013B25
:10438C009A4211D1FB681B0C03F07F027B689B6B7C
:10439C00013B9A4208D1FB681B0E03F07F027B683D
:1043AC00DB6B013B9A4201D001232BE0174B5B6B7B
:1043BC00DB08C3F30C033B617B689B6C3A699A4244
:1043CC001FD0124BDB6A114A23F00103D36202F0B7
:1043DC0043FC786200BF02F03FFC02467B6A9342CA
:1043EC00F9D00A4B5A6B0A4B13407A68926CD20084
:1043FC00064913434B63054BDB6A044A43F0010344
:10440C00D362002318463037BD4680BD00440258A5
:10441C000700FFFF80B586B000AF786039607B681D
:10442C00002B01D101239CE18A4B1B6803F00F0385
:10443C003A689A4210D9874B1B6823F00F028549C2
:10444C003B6813430B60834B1B6803F00F033A6804
:10445C009A4201D0012384E17B681B6803F00403BA
:10446C00002B10D07B681A697B4B9B6903F070039F
:10447C009A4208D9784B9B6923F070027B681B69C0
:10448C00754913438B617B681B6803F00803002B91
:10449C0010D07B685A69704BDB6903F070039A4249
:1044AC0008D96D4BDB6923F070027B685B696A4944
:1044BC001343CB617B681B6803F01003002B10D0F7
:1044CC007B689A69644BDB6903F4E0639A4208D910
:1044DC00614BDB6923F4E0627B689B695E491343A3
:1044EC00CB617B681B6803F02003002B10D07B682A
:1044FC00DA69594B1B6A03F070039A4208D9564B80
:10450C001B6A23F070027B68DB69534913430B620F
:10451C007B681B6803F00203002B10D07B68DA6801
:10452C004D4B9B6903F00F039A4208D94A4B9B6988
:10453C0023F00F027B68DB68474913438B617B6870
:10454C001B6803F00103002B55D0434B9B6923F4EC
:10455C0070627B689B68404913438B617B685B6826
:10456C00022B07D13C4B1B6803F40033002B21D1E9
:10457C000123F6E07B685B68032B07D1364B1B6885
:10458C0003F00073002B15D10123EAE07B685B6814
:10459C00012B07D1304B1B6803F48073002B09D11E
:1045AC000123DEE02C4B1B6803F00403002B01D12C
:1045BC000123D6E0284B1B6923F007027B685B685C
:1045CC00254913430B6102F047FB78610AE002F0C6
:1045DC0043FB02467B69D31A41F28832934201D9DC
:1045EC000323BEE01C4B1B6903F038027B685B683D
:1045FC00DB009A42EBD17B681B6803F00203002BB3
:10460C0010D07B68DA68144B9B6903F00F039A4255
:10461C0008D2114B9B6923F00F027B68DB680E49B3
:10462C0013438B610B4B1B6803F00F033A689A42E0
:10463C0014D2084B1B6823F00F0206493B68134346
:10464C000B60044B1B6803F00F033A689A4205D0C9
:10465C00012386E000200052004402587B681B684E
:10466C0003F00403002B10D07B681A693F4B9B6945
:10467C0003F070039A4208D23C4B9B6923F0700202
:10468C007B681B69394913438B617B681B6803F09A
:10469C000803002B10D07B685A69344BDB6903F09C
:1046AC0070039A4208D2314BDB6923F070027B68AD
:1046BC005B692E491343CB617B681B6803F01003C5
:1046CC00002B10D07B689A69284BDB6903F4E063FC
:1046DC009A4208D2254BDB6923F4E0627B689B6924
:1046EC0022491343CB617B681B6803F02003002B2A
:1046FC0010D07B68DA691D4B1B6A03F070039A4279
:10470C0008D21A4B1B6A23F070027B68DB691749CD
:10471C0013430B6200F034F80246144B9B691B0ADE
:10472C0003F00F031249CB5C03F01F0322FA03F3CF
:10473C003B610E4B9B6903F00F030D4AD35C03F0F6
:10474C001F033A6922FA03F30A4A13600A4A3B69C7
:10475C0013600A4B1B681846FCF706FF0346FB73F5
:10476C00FB7B18461837BD4680BD00BF004402587D
:10477C00746D0008040000240000002408000024CC
:10478C0080B489B000AFB34B1B6903F03803182B0E
:10479C0000F2558101A252F823F000BF0D48000829
:1047AC004B4A00084B4A00084B4A00084B4A000889
:1047BC004B4A00084B4A00084B4A00083348000893
:1047CC004B4A00084B4A00084B4A00084B4A000869
:1047DC004B4A00084B4A00084B4A0008394800086D
:1047EC004B4A00084B4A00084B4A00084B4A000849
:1047FC004B4A00084B4A00084B4A00083F48000847
:10480C00944B1B6803F02003002B09D0914B1B68C1
:10481C00DB0803F00303904A22FA03F3BB6111E1B6
:10482C008D4BBB610EE18D4BBB610BE18C4BBB61C6
:10483C0008E1884B9B6A03F003037B61854B9B6A01
:10484C001B0903F03F033B61824BDB6A03F001035E
:10485C00FB60804B5B6BDB08C3F30C03FA6802FB59
:10486C0003F307EE903AF8EE677AC7ED027A3B69EC
:10487C00002B00F0E1807B69022B00F083807B69C8
:10488C00022B00F2A1807B69002B03D07B69012BEA
:10489C0056D099E06F4B1B6803F02003002B2DD0F2
:1048AC006C4B1B68DB0803F003036B4A22FA03F31F
:1048BC007B607B6807EE903AF8EE676A3B6907EE1F
:1048CC00903AF8EE677A86EEA77A624B1B6BC3F3CD
:1048DC00080307EE903AF8EE676A97ED026ADFED8F
:1048EC00615AC6EE257A76EEA77AF7EE006A77EE75
:1048FC00A67A67EE277AC7ED077A87E03B6907EE61
:10490C00903AF8EE677ADFED586A86EEA77A514B4B
:10491C001B6BC3F3080307EE903AF8EE676A97ED4A
:10492C00026ADFED505AC6EE257A76EEA77AF7EEDC
:10493C00006A77EEA67A67EE277AC7ED077A65E00C
:10494C003B6907EE903AF8EE677ADFED486A86EE3F
:10495C00A77A404B1B6BC3F3080307EE903AF8EEB3
:10496C00676A97ED026ADFED3F5AC6EE257A76EE5E
:10497C00A77AF7EE006A77EEA67A67EE277AC7ED8C
:10498C00077A43E03B6907EE903AF8EE677ADFED81
:10499C00386A86EEA77A2F4B1B6BC3F3080307EE1E
:1049AC00903AF8EE676A97ED026ADFED2E5AC6EE82
:1049BC00257A76EEA77AF7EE006A77EEA67A67EE9E
:1049CC00277AC7ED077A21E03B6907EE903AF8EEBB
:1049DC00677ADFED266A86EEA77A1E4B1B6BC3F354
:1049EC00080307EE903AF8EE676A97ED026ADFED7E
:1049FC001D5AC6EE257A76EEA77AF7EE006A77EEA8
:104A0C00A67A67EE277AC7ED077A00BF114B1B6BAE
:104A1C005B0A03F07F0301333B603B6807EE903A7F
:104A2C00B8EE677AD7ED076AC6EE877AFCEEE77ABE
:104A3C0017EE903ABB6105E00023BB6102E0074B27
:104A4C00BB6100BFBB6918462437BD465DF8047BCB
:104A5C00704700BF004402580090D00300093D008D
:104A6C0040787D01000000460024744C0024744AF8
:104A7C0020BCBE4B80B582B000AFFFF781FE024672
:104A8C00104B9B691B0A03F00F030F49CB5C03F01F
:104A9C001F0322FA03F37B600A4B9B6903F00F039D
:104AAC00094AD35C03F01F037A6822FA03F3074A1E
:104ABC001360074A7B681360044B1B681846083761
:104ACC00BD4680BD00440258746D000804000024EB
:104ADC000000002480B500AFFFF7CCFF0246064B68
:104AEC00DB691B0A03F007030449CB5C03F01F03CB
:104AFC0022FA03F3184680BD00440258746D000876
:104B0C0080B483B000AF786039607B683F221A6054
:104B1C001A4B1B6903F007027B685A60174B9B69A1
:104B2C0003F470627B689A60144B9B6903F00F026C
:104B3C007B68DA60114B9B6903F070027B681A6129
:104B4C000E4BDB6903F070027B685A610B4BDB691F
:104B5C0003F4E0627B689A61084B1B6A03F07002F5
:104B6C007B68DA61064B1B6803F00F023B681A6026
:104B7C0000BF0C37BD465DF8047B704700440258FB
:104B8C000020005280B584B000AF78607B68002BA9
:104B9C0001D101230FE17B6800229A627B681B68BC
:104BAC00874A93420FD07B681B68864A93420AD08F
:104BBC007B681B68844A934205D07B68DB680F2BAB
:104BCC0001D90123F7E0786800F074FFF8607B6886
:104BDC001B687B4A93420CD07B681B68794A9342D2
:104BEC0007D07B681B68784A934202D0FB68082B7D
:104BFC0011D87B681B68724A934209D07B681B688A
:104C0C00704A934204D07B681B686F4A934204D16C
:104C1C00FB68102B01D90123CDE07B6893F8813020
:104C2C00DBB2002B06D17B68002283F880207868E9
:104C3C00FCF770FA7B68022283F881207B681B6882
:104C4C001A687B681B6822F001021A607B681B687B
:104C5C009B6803F4F813BB607B689B69B3F1806FAE
:104C6C0019D17B685B68B3F5800F03D17B689B6BB4
:104C7C00002B08D07B685B68002B0CD17B689B6B8E
:104C8C00B3F1805F07D17B681B681A687B681B686F
:104C9C0042F480521A607B685B6803F48003002B3B
:104CAC000FD07B68DB68062B0BD97B681B681B68F5
:104CBC0023F480717B681A6D7B681B680A431A6049
:104CCC0007E07B681B681A687B681B6822F480729B
:104CDC001A607B68DA697B689B6A1A43BB681A4363
:104CEC007B68DB6B42EA03017B68DA687B681B68D4
:104CFC000A439A607B685A6B7B685B6A1A437B68D1
:104D0C009B6B1A437B689B691A437B681B691A432C
:104D1C007B685B691A437B681B6A1A437B685B6818
:104D2C001A437B68DB6C1A437B689B681A437B686D
:104D3C009B6C42EA03017B689A6D7B681B680A4393
:104D4C00DA607B685B68002B13D17B681B689B68FF
:104D5C0023F4C0527B681B6842F400629A607B6843
:104D6C001B689B6823F4C0627B681B6842F48062FA
:104D7C009A607B681B681A6D7B681B6822F00102C5
:104D8C001A657B685B6803F48003002B0AD07B6890
:104D9C001B68DB6823F000417B685A6D7B681B68DD
:104DAC000A43DA607B680022C3F884207B68012206
:104DBC0083F88120002318461037BD4680BD00BF04
:104DCC000030014000380040003C004080B58AB003
:104DDC0002AFF860B9603B601346FB80FB681B6850
:104DEC002033FB610023FB76FB6893F88030012BAA
:104DFC0001D10223E1E1FB68012283F8802001F05C
:104E0C002BFF7861FB6893F88130DBB2012B07D064
:104E1C000223FB76FB68002283F88020FB7ECCE12A
:104E2C00BB68002B02D0FB88002B07D10123FB763B
:104E3C00FB68002283F88020FB7EBEE1FB68032226
:104E4C0083F88120FB680022C3F88420FB68BA68D1
:104E5C00DA65FB68FA88A3F86020FB68FA88A3F887
:104E6C006220FB6800225A66FB680022A3F86820C7
:104E7C00FB680022A3F86A20FB6800225A67FB68D3
:104E8C0000221A67FB689B68B3F5C02F08D1FB683A
:104E9C001B681A68FB681B6842F400621A6009E020
:104EAC00FB681B68DB6823F4C022FB681B6842F4B8
:104EBC000032DA60FB681B685A68964B1340F9881D
:104ECC00FA6812680B435360FB681B681A68FB682E
:104EDC001B6842F001021A60FB685B68B3F5800F37
:104EEC0007D1FB681B681A68FB681B6842F40072E8
:104EFC001A60FB68DB680F2B47D93FE0FB681B6827
:104F0C005B6903F00203022B14D1FB68DA6DFB68BA
:104F1C001B6812681A62FB68DB6D1A1DFB68DA6588
:104F2C00FB68B3F862309BB2013B9AB2FB68A3F802
:104F3C00622023E001F090FE02467B69D31A3A68A6
:104F4C009A4203D83B68B3F1FF3F02D13B68002B78
:104F5C0014D1F86800F0E0FCFB68002283F8802094
:104F6C00FB68D3F8843043F48072FB68C3F8842068
:104F7C00FB68012283F8812003231EE1FB68B3F850
:104F8C0062309BB2002BB9D1F1E0FB68DB68072BD8
:104F9C0040F2E6805DE0FB681B685B6903F002038E
:104FAC00022B32D1FB68B3F862309BB2012B18D9BB
:104FBC00FB68DB6B002B14D0FB68DA6DFB681B689D
:104FCC0012681A62FB68DB6D1A1DFB68DA65FB68F8
:104FDC00B3F862309BB2023B9AB2FB68A3F8622032
:104FEC0037E0FB68DB6D1A88FB691A80FB68DB6DA8
:104FFC009A1CFB68DA65FB68B3F862309BB2013B24
:10500C009AB2FB68A3F8622023E001F025FE024669
:10501C007B69D31A3A689A4203D83B68B3F1FF3FD5
:10502C0002D13B68002B14D1F86800F075FCFB68CA
:10503C00002283F88020FB68D3F8843043F480721C
:10504C00FB68C3F88420FB68012283F881200323CA
:10505C00B3E0FB68B3F862309BB2002B9BD186E0C7
:10506C00FB681B685B6903F00203022B54D1FB68DD
:10507C00B3F862309BB2032B18D9FB68DB6B402B67
:10508C0014D9FB68DA6DFB681B6812681A62FB683E
:10509C00DB6D1A1DFB68DA65FB68B3F862309BB2F6
:1050AC00043B9AB2FB68A3F8622059E0FB68B3F8A2
:1050BC0062309BB2012B17D9FB68DB6B002B13D032
:1050CC00FB68DB6D1A88FB691A80FB68DB6D9A1C28
:1050DC00FB68DA65FB68B3F862309BB2023B9AB2AC
:1050EC00FB68A3F862203BE0FB68DA6DFB681B6889
:1050FC00203312781A70FB68DB6D5A1CFB68DA657A
:10510C00FB68B3F862309BB2013B9AB2FB68A3F820
:10511C00622025E00000FFFF01F09EFD02467B6946
:10512C00D31A3A689A4203D83B68B3F1FF3F02D1D5
:10513C003B68002B14D1F86800F0EEFBFB680022F2
:10514C0083F88020FB68D3F8843043F48072FB68CA
:10515C00C3F88420FB68012283F8812003232CE010
:10516C00FB68B3F862309BB2002B7FF479AF7B699C
:10517C0000933B6800220821F86800F06DFC0346A0
:10518C00002B07D0FB68D3F8843043F02002FB6877
:10519C00C3F88420F86800F0BFFBFB68002283F89A
:1051AC008020FB68012283F88120FB68D3F88430CF
:1051BC00002B01D0012300E0FB7E18462037BD46B2
:1051CC0080BD00BF80B588B000AFF860B9603B60AF
:1051DC001346FB800023FB77FB681B683033BB61F5
:1051EC00FB6893F88030012B01D1022373E1FB683B
:1051FC00012283F8802001F02FFD7861FB6893F881
:10520C008130DBB2012B07D00223FB77FB68002235
:10521C0083F88020FB7F5EE1BB68002B02D0FB880B
:10522C00002B07D10123FB77FB68002283F8802039
:10523C00FB7F50E1FB68042283F88120FB6800228D
:10524C00C3F88420FB68BA685A66FB68FA88A3F82E
:10525C006820FB68FA88A3F86A20FB680022DA65EC
:10526C00FB680022A3F86020FB680022A3F86220F0
:10527C00FB6800221A67FB6800225A67FB689B6870
:10528C00B3F5C02F08D1FB681B681A68FB681B6854
:10529C0022F400621A6009E0FB681B68DB6823F4E7
:1052AC00C022FB681B6842F48022DA60FB681B6832
:1052BC005A688B4B1340F988FA6812680B43536099
:1052CC00FB681B681A68FB681B6842F001021A60D5
:1052DC00FB685B68B3F5800F07D1FB681B681A6825
:1052EC00FB681B6842F400721A60FB68DB680F2BCA
:1052FC0048D940E0FB681B685A6948F20803134020
:10530C00002B14D0FB681A68FB685B6E126B1A607A
:10531C00FB685B6E1A1DFB685A66FB68B3F86A3053
:10532C009BB2013B9AB2FB68A3F86A2023E001F020
:10533C0093FC02467B69D31A3A689A4203D83B68BD
:10534C00B3F1FF3F02D13B68002B14D1F86800F099
:10535C00E3FAFB68002283F88020FB68D3F88430E2
:10536C0043F48072FB68C3F88420FB68012283F845
:10537C0081200323AFE0FB68B3F86A309BB2002BAB
:10538C00B8D195E0FB68DB68072B40F28B803FE0DF
:10539C00FB681B685B6903F00103012B14D1FB68EC
:1053AC005B6EBA69128892B21A80FB685B6E9A1CAB
:1053BC00FB685A66FB68B3F86A309BB2013B9AB241
:1053CC00FB68A3F86A2023E001F046FC02467B69E7
:1053DC00D31A3A689A4203D83B68B3F1FF3F02D123
:1053EC003B68002B14D1F86800F096FAFB68002299
:1053FC0083F88020FB68D3F8843043F48072FB6818
:10540C00C3F88420FB68012283F88120032362E027
:10541C00FB68B3F86A309BB2002BB9D148E0FB684B
:10542C001B685B6903F00103012B17D1FB681B6838
:10543C0003F13002FB685B6E1278D2B21A70FB6813
:10544C005B6E5A1CFB685A66FB68B3F86A309BB2F9
:10545C00013B9AB2FB68A3F86A2023E001F0FCFB45
:10546C0002467B69D31A3A689A4203D83B68B3F177
:10547C00FF3F02D13B68002B14D1F86800F04CFAC6
:10548C00FB68002283F88020FB68D3F8843043F457
:10549C008072FB68C3F88420FB68012283F88120AA
:1054AC00032318E0FB68B3F86A309BB2002BB6D12B
:1054BC00F86800F031FAFB68002283F88020FB6862
:1054CC00012283F88120FB68D3F88430002B01D0B3
:1054DC00012300E0FB7F18462037BD4680BD00BF8E
:1054EC000000FFFF80B58AB000AF78607B681B6856
:1054FC001B693B627B681B685B69FB613A6AFB69F1
:10550C001340BB617B681B689B687B6100237B62DB
:10551C007B6893F88130FB747B681B683033FB60CD
:10552C00FB6903F40063002B10D03B6A03F0080303
:10553C00002B0BD07B681B689A697B681B6842F454
:10554C0000629A61786800F0C3F992E1BB6903F0DC
:10555C004003002B13D1BB6903F02003002B0ED1A9
:10556C00BB6903F00403002B09D07B685B6F786880
:10557C0098477B681B6F7868984701237B62BB69EF
:10558C0003F04003002B0FD1BB6903F00103002B88
:10559C000AD0BB6903F00403002B05D17B681B6F99
:1055AC007868984701237B62BB6903F02003002BCA
:1055BC000FD1BB6903F00203002B0AD0BB6903F0C7
:1055CC000403002B05D17B685B6F78689847012337
:1055DC007B627B6A002B40F04781BB6903F00803B8
:1055EC00002B00F08B807B681B689A697B681B68BA
:1055FC0042F008029A617B681B689A697B681B6899
:10560C0042F010029A617B681B689A697B681B6880
:10561C0042F400629A617B681B681A697B681B689C
:10562C0022F008021A617B681B689B6803F44043F4
:10563C00002B3DD136E07B68DB680F2B0BD97B68E8
:10564C001A687B685B6E126B1A607B685B6E1A1D46
:10565C007B685A661DE07B68DB68072B0BD97B687F
:10566C005B6EFA68128892B21A807B685B6E9A1C29
:10567C007B685A660DE07B681B6803F130027B681F
:10568C005B6E1278D2B21A707B685B6E5A1C7B68A8
:10569C005A667B68B3F86A309BB2013B9AB27B685E
:1056AC00A3F86A207B68B3F86A309BB2002BC2D196
:1056BC00786800F031F97B68012283F881207B68DF
:1056CC00D3F88430002B03D0786800F0F7F8D0E0E2
:1056DC00FB7C052B03D1786800F0E6F8C6E0FB7C78
:1056EC00042B03D1786800F0D5F8BFE0FB7C032BCA
:1056FC0040F0BC80786800F0C3F8B7E0BB6903F4F5
:10570C005873002B00F0B580BB6903F04003002BED
:10571C000FD07B68D3F8843043F004027B68C3F865
:10572C0084207B681B689A697B681B6842F0400286
:10573C009A61BB6903F40073002B0FD07B68D3F81C
:10574C00843043F001027B68C3F884207B681B68BB
:10575C009A697B681B6842F400729A61BB6903F416
:10576C008073002B0FD07B68D3F8843043F0080291
:10577C007B68C3F884207B681B689A697B681B680C
:10578C0042F480729A61BB6903F02003002B0FD0A6
:10579C007B68D3F8843043F080027B68C3F88420A4
:1057AC007B681B689A697B681B6842F020029A61CF
:1057BC007B68D3F88430002B5AD07B681B681A683E
:1057CC007B681B6822F001021A607B681B681969F0
:1057DC007B681A68284B0B4013617B6903F44043C8
:1057EC00B3F5404F38D17B681B689A687B681B689F
:1057FC0022F440429A607B68DB6F002B13D07B68ED
:10580C00DB6F1E4A1A657B68DB6F1846FCF76AF97A
:10581C000346002B07D07B68D3F8843043F040025A
:10582C007B68C3F884207B689B6F002B20D07B683F
:10583C009B6F124A1A657B689B6F1846FCF752F9EE
:10584C000346002B14D07B68D3F8843043F040021D
:10585C007B68C3F884200BE07B68012283F88120ED
:10586C00786800F02BF803E000BF02E000BF00E016
:10587C0000BF2837BD4680BD94FCFFFFF1580008DF
:10588C0080B483B000AF786000BF0C37BD465DF8C4
:10589C00047B704780B483B000AF786000BF0C37D6
:1058AC00BD465DF8047B704780B483B000AF786070
:1058BC0000BF0C37BD465DF8047B704780B483B0E5
:1058CC0000AF786000BF0C37BD465DF8047B7047B5
:1058DC0080B483B000AF786000BF0C37BD465DF874
:1058EC00047B704780B584B000AF78607B689B6B9D
:1058FC00FB60FB680022A3F86A20FB680022A3F877
:10590C006220FB68012283F88120F868FFF7D6FF3C
:10591C0000BF1037BD4680BD80B485B000AF786045
:10592C007B681B685B69FB607B681B689A697B689A
:10593C001B6842F008029A617B681B689A697B6855
:10594C001B6842F010029A617B681B681A687B68BE
:10595C001B6822F001021A607B681B6819697B685E
:10596C001A683C4B0B4013617B681B689A687B6818
:10597C001B6822F440429A607B6893F88130DBB25A
:10598C00042B14D0FB6803F02003002B0FD07B6892
:10599C00D3F8843043F080027B68C3F884207B68A2
:1059AC001B689A697B681B6842F020029A617B68CD
:1059BC0093F88130DBB2032B14D0FB6803F0400367
:1059CC00002B0FD07B68D3F8843043F004027B6843
:1059DC00C3F884207B681B689A697B681B6842F05B
:1059EC0040029A61FB6803F40073002B0FD07B68B4
:1059FC00D3F8843043F001027B68C3F884207B68C1
:105A0C001B689A697B681B6842F400729A61FB6898
:105A1C0003F48073002B0FD07B68D3F8843043F0F1
:105A2C0008027B68C3F884207B681B689A697B68D2
:105A3C001B6842F480729A617B680022A3F8622092
:105A4C007B680022A3F86A2000BF1437BD465DF8BE
:105A5C00047B704790FCFFFF80B584B000AFF8600A
:105A6C00B9603B601346FB7110E001F0F5F802469B
:105A7C00BB69D31A3A689A4203D83B68B3F1FF3F2B
:105A8C0002D13B68002B01D103230FE0FB681B689C
:105A9C005A69BB681340BA689A420CBF01230023B1
:105AAC00DBB21A46FB799A42DFD000231846103736
:105ABC00BD4680BD80B485B000AF78607B68DB6B81
:105ACC005B090133FB607B68DB680133BB60BB683F
